S015000046696E616C2050726F6A6563742E737265632E
S11300000C942A000C9447000C9447000C9447006D
S11300100C9447000C9447000C9447000C94470040
S11300200C9403010C9447000C9447000C94470073
S11300300C9447000C9447000C9447000C94470020
S11300400C9447000C9447000C9447000C94470010
S11300500C94470011241FBECFE5D4E0DEBFCDBF12
S113006012E0A0E6B0E0EAE0F8E002C005900D92EC
S1130070A036B107D9F722E0A0E6B2E001C01D9294
S1130080A636B207E1F70E9437020C9403040C94DD
S11300900000AE9A81EE94E00197F1F700C00000F1
S11300A085B3807885BB089511BAA99AA898979BBF
S11300B004C00E9449009799FCCF8FEF81BB08953B
S11300C0CF93C82F0E945400C2BB85B38C7F85BBDD
S11300D00E94490012BACF910895CF93C82F0E946D
S11300E05400C2BBA998A89A0E94490012BACF91A1
S11300F00895CF93DF93EC018881882331F0219612
S11301000E946D0089918111FBCFDF91CF910895F9
S11301106058E82FF0E0E05AFF4F8081860F0E947C
S11301206000089584B3836484BB83ED90E30197F6
S1130130F1F700C0000081E00E94600083EF91E0CD
S11301400197F1F700C0000088E30E94600090E18D
S11301509A95F1F700C08EE00E94600080E18A95D4
S1130160F1F700C0089581E00E94600083EF91E000
S11301700197F1F700C000000895B0E0A0E060E14D
S113018070E0F1E0E0E08B2F9A2F9B01082E02C073
S1130190220F331F0A94E2F72ABB20952BBBC89B7E
S11301A00DC04F2F5E2F29B330E0042E02C03595C9
S11301B027950A94E2F720FD0CC002C040E050E00D
S11301C0440F551F440F551F480F591FCA0101966C
S11301D008954F5F5F4F4430510529F701968430ED
S11301E0910599F6D0CF10926102109260028EB5FB
S11301F084608EBD8DEE95E89DBD8CBD89B784600D
S113020089BF789408951F920F920FB60F9211240C
S11302102F933F934F935F936F937F938F939F930A
S1130220AF93BF93EF93FF9380916002909161022B
S1130230019690936102809360020C9709F057C075
S113024060E080E00E94880088E890E00E947900E5
S113025060E081E00E94880089E990E00E947900D2
S11302602FE382E49FE0215080409040E1F700C0FA
S113027000008091620290916302019705979CF0BF
S11302800E94B30060E080E00E9488008AEA90E067
S11302900E94790060E081E00E9488008AEB90E08F
S11302A00E94790012C00E94B30060E080E00E94C6
S11302B0880088EC90E00E94790060E081E00E9470
S11302C0880086ED90E00E9479002FEF88E09DE39E
S11302D0215080409040E1F700C000008DEE95E889
S11302E09DBD8CBD109261021092600204C08DEE1F
S11302F095E89DBD8CBDFF91EF91BF91AF919F910A
S11303008F917F916F915F914F913F912F910F90BA
S11303100FBE0F901F90189584E190E0C79AE9EF03
S1130320F0E03197F1F700C00000C798EDE8F2E182
S11303303197F1F700C00000019781F7089584E137
S113034090E0C79AE5E1F1E03197F1F700C0C79872
S1130350E2E7F2E13197F1F7019799F7089584E123
S113036090E0C79AE1E3F1E03197F1F70000C79814
S1130370E6E5F2E13197F1F70000019791F708956E
S113038084E190E0C79AEDE4F1E03197F1F7C79882
S1130390EAE3F2E13197F1F700C0019799F7089584
S11303A084E190E0C79AE8E6F1E03197F1F700C004
S11303B00000C798EEE1F2E13197F1F700C00000C8
S11303C0019781F7089584E190E0C79AE4E8F1E0A9
S11303D03197F1F700C0C798E3E0F2E13197F1F704
S11303E0019799F7089584E190E0C79AE0EAF1E073
S11303F03197F1F70000C798E7EEF1E13197F1F793
S11304000000019791F7089584E190E0C79AECEB1E
S1130410F1E03197F1F7C798EBECF1E13197F1F79F
S113042000C0019799F7089584E190E0C79AE7ED39
S1130430F1E03197F1F700C00000C798EFEAF1E16D
S11304403197F1F700C00000019781F7089584E126
S113045090E0C79AE3EFF1E03197F1F700C0C79855
S1130460E4E9F1E13197F1F7019799F70895CF9312
S1130470DF93CDB7DEB7CA54D1090FB6F894DEBF07
S11304800FBECDBF0E9492008FEF87BB81EE90E03C
S11304909A8389838EEE90E09C838B838DEF90E02A
S11304A09E838D838CE091E098878F838CE191E02B
S11304B09A8789878AE291E09C878B8789E391E018
S11304C09E878D8789E491E0988B8F878AE591E0F8
S11304D09A8B898B8AE691E09C8B8B8B88E791E0E1
S11304E09E8B8D8B26E831E0388F2F8B9A8F898FE6
S11304F084E991E09C8F8B8F84EA91E09E8F8D8FAD
S113050082EB91E098A38F8F81EC91E09AA389A369
S11305108EEC91E09CA38BA382E1E2E6F0E0DE01A5
S1130520959601900D928A95E1F784E1E4E7F0E075
S1130530DE01D79601900D928A95E1F701E010E073
S113054010936302009362020E948C018FA980952C
S113055088BB60E080E00E9488008CED91E00E94FE
S1130560790060E081E00E9488008CEE91E00E94B6
S113057079002FE332E48FE0215030408040E1F7EE
S113058000C000000E94B30060E080E00E94880088
S11305908AEF91E00E94790060E081E00E94880087
S11305A08AE092E00E9479009FE322E43FE09150C8
S11305B020403040E1F700C000000E94B30060E03A
S11305C080E00E94880089E192E00E94790060E066
S11305D081E00E94880089E292E00E9479000E94F2
S11305E0BD000E94F30010926502109264020E9402
S11305F0B30060E080E00E948800E0916402F09122
S11306006502EE0FFF1F81E090E08C0F9D1FE80F45
S1130610F91F808191810E94790060E081E00E944D
S11306208800E0916402F0916502EE0FFF1F21E063
S113063030E02C0F3D1FE20FF31F828993890E9443
S113064079000E94BD00E0916402F0916502EE0F12
S1130650FF1F21E030E02C0F3D1FE20FF31F24A108
S113066035A12817390709F061C00E94B30060E082
S113067080E00E94880088E392E00E9479008FE481
S113068093EC0197F1F700C00000E0916202F09151
S11306906302EE0FFF1F21E030E02C0F3D1FE20F3D
S11306A0F31F86A9809588BB8091620290916302B2
S11306B08130910519F40E949F012EC0823091056A
S11306C019F40E94AF0128C08330910519F40E94E7
S11306D0C00122C08430910519F40E94D0011CC0CD
S11306E08530910519F40E94E30116C08630910506
S11306F019F40E94F30110C08730910519F40E9487
S113070004020AC08830910519F40E94140204C03E
S1130710099711F40E94270280916202909163026A
S11307200196909363028093620215C00E94B30005
S113073060E080E00E94880085E492E00E947900F5
S1130740AF9A3FE986E891E0315080409040E1F76C
S113075000C00000AF9880916402909165020196F8
S1130760909365028093640209970CF440CF8091C2
S11307706202909163028A30910599F40E94B30059
S113078060E080E00E9488008AEA90E00E9479009C
S113079060E081E00E94880082E592E00E94790096
S11307A028C0019705979CF00E94B30060E080E0A8
S11307B00E9488008AEA90E00E94790060E081E06B
S11307C00E9488008AEB90E00E94790012C00E9487
S11307D0B30060E080E00E94880088EC90E00E9412
S11307E0790060E081E00E94880086ED90E00E943C
S11307F079002FEF38E08DE3215030408040E1F75D
S10D080000C000009DCEF894FFCF65
S113080A0040090006000900050006000900090065
S113081A06000600DF008600BB00AF00E600ED001C
S113082AFD008700FF00EF0054696D654F75742C55
S113083A53636F7265204973004F6E2037205365E6
S113084A676D656E745F5F5F5F00436F6E677261A9
S113085A74756C6174696F6E7300596F7520537582
S113086A636365656465640048617264206C6F63E0
S113087A6B203A272000596F75204661696C6564BC
S113088A0051315F202034782B313D343500513208
S113089A5F202037782D363D33782B320051335F71
S11308AA2020785E332D313D3236200051345F20CA
S11308BA20785E322D32782B313D300051355F205D
S11308CA20783D39692A3769200051365F20204C47
S11308DA6F672878293D32200051375F2020312C58
S11308EA342C392C782C32350051385F2020322CA4
S11308FA342C782C31362C33320051395F20203194
S113090A2C332C362C782C313500392020313020E8
S113091A2031312020313300312020203220202080
S113092A332020203400312020203220202033207C
S113093A202035002D3732202D3633202D35342012
S113094A2D383100312031302031303020313030EF
S113095A300031302020313220203136202032300C
S113096A0035202038202031302020313200382030
S113097A20313020203132202031340057656C6315
S113098A6F6D6520746F204578616D00476574202A
S113099A5265616479203B29200046696E642056B9
S11309AA616C7565206F6620580054696D6520690D
S11309BA7320312E356D696E00496620596F75278B
S11309CA726520526561647900507265737320748C
S11309DA6F20737461727400726967687420616E3F
S11309EA737765720077726F6E6720616E737765CD
S11309FA720046756C6C204D61726B203B29200095
S9030000FC
